{
  "contractName": "VWTestTokenContract",
  "abi": [
    {
      "inputs": [],
      "stateMutability": "nonpayable",
      "type": "constructor"
    },
    {
      "anonymous": false,
      "inputs": [
        {
          "indexed": true,
          "internalType": "address",
          "name": "owner",
          "type": "address"
        },
        {
          "indexed": true,
          "internalType": "address",
          "name": "spender",
          "type": "address"
        },
        {
          "indexed": false,
          "internalType": "uint256",
          "name": "value",
          "type": "uint256"
        }
      ],
      "name": "Approval",
      "type": "event"
    },
    {
      "anonymous": false,
      "inputs": [
        {
          "indexed": true,
          "internalType": "address",
          "name": "from",
          "type": "address"
        },
        {
          "indexed": true,
          "internalType": "address",
          "name": "to",
          "type": "address"
        },
        {
          "indexed": false,
          "internalType": "uint256",
          "name": "value",
          "type": "uint256"
        }
      ],
      "name": "Transfer",
      "type": "event"
    },
    {
      "inputs": [
        {
          "internalType": "address",
          "name": "owner",
          "type": "address"
        },
        {
          "internalType": "address",
          "name": "spender",
          "type": "address"
        }
      ],
      "name": "allowance",
      "outputs": [
        {
          "internalType": "uint256",
          "name": "",
          "type": "uint256"
        }
      ],
      "stateMutability": "view",
      "type": "function",
      "constant": true
    },
    {
      "inputs": [
        {
          "internalType": "address",
          "name": "spender",
          "type": "address"
        },
        {
          "internalType": "uint256",
          "name": "amount",
          "type": "uint256"
        }
      ],
      "name": "approve",
      "outputs": [
        {
          "internalType": "bool",
          "name": "",
          "type": "bool"
        }
      ],
      "stateMutability": "nonpayable",
      "type": "function"
    },
    {
      "inputs": [
        {
          "internalType": "address",
          "name": "account",
          "type": "address"
        }
      ],
      "name": "balanceOf",
      "outputs": [
        {
          "internalType": "uint256",
          "name": "",
          "type": "uint256"
        }
      ],
      "stateMutability": "view",
      "type": "function",
      "constant": true
    },
    {
      "inputs": [
        {
          "internalType": "address",
          "name": "",
          "type": "address"
        }
      ],
      "name": "balances",
      "outputs": [
        {
          "internalType": "uint256",
          "name": "",
          "type": "uint256"
        }
      ],
      "stateMutability": "view",
      "type": "function",
      "constant": true
    },
    {
      "inputs": [],
      "name": "decimals",
      "outputs": [
        {
          "internalType": "uint8",
          "name": "",
          "type": "uint8"
        }
      ],
      "stateMutability": "view",
      "type": "function",
      "constant": true
    },
    {
      "inputs": [
        {
          "internalType": "address",
          "name": "spender",
          "type": "address"
        },
        {
          "internalType": "uint256",
          "name": "subtractedValue",
          "type": "uint256"
        }
      ],
      "name": "decreaseAllowance",
      "outputs": [
        {
          "internalType": "bool",
          "name": "",
          "type": "bool"
        }
      ],
      "stateMutability": "nonpayable",
      "type": "function"
    },
    {
      "inputs": [
        {
          "internalType": "address",
          "name": "spender",
          "type": "address"
        },
        {
          "internalType": "uint256",
          "name": "addedValue",
          "type": "uint256"
        }
      ],
      "name": "increaseAllowance",
      "outputs": [
        {
          "internalType": "bool",
          "name": "",
          "type": "bool"
        }
      ],
      "stateMutability": "nonpayable",
      "type": "function"
    },
    {
      "inputs": [],
      "name": "name",
      "outputs": [
        {
          "internalType": "string",
          "name": "",
          "type": "string"
        }
      ],
      "stateMutability": "view",
      "type": "function",
      "constant": true
    },
    {
      "inputs": [],
      "name": "symbol",
      "outputs": [
        {
          "internalType": "string",
          "name": "",
          "type": "string"
        }
      ],
      "stateMutability": "view",
      "type": "function",
      "constant": true
    },
    {
      "inputs": [],
      "name": "totalSupply",
      "outputs": [
        {
          "internalType": "uint256",
          "name": "",
          "type": "uint256"
        }
      ],
      "stateMutability": "view",
      "type": "function",
      "constant": true
    },
    {
      "inputs": [
        {
          "internalType": "address",
          "name": "to",
          "type": "address"
        },
        {
          "internalType": "uint256",
          "name": "amount",
          "type": "uint256"
        }
      ],
      "name": "transfer",
      "outputs": [
        {
          "internalType": "bool",
          "name": "",
          "type": "bool"
        }
      ],
      "stateMutability": "nonpayable",
      "type": "function"
    },
    {
      "inputs": [
        {
          "internalType": "address",
          "name": "from",
          "type": "address"
        },
        {
          "internalType": "address",
          "name": "to",
          "type": "address"
        },
        {
          "internalType": "uint256",
          "name": "amount",
          "type": "uint256"
        }
      ],
      "name": "transferFrom",
      "outputs": [
        {
          "internalType": "bool",
          "name": "",
          "type": "bool"
        }
      ],
      "stateMutability": "nonpayable",
      "type": "function"
    },
    {
      "inputs": [],
      "name": "mintToken",
      "outputs": [],
      "stateMutability": "nonpayable",
      "type": "function"
    }
  ],
  "bytecode": "0x60806040523480156200001157600080fd5b506040518060400160405280600c81526020017f56575465737420546f6b656e00000000000000000000000000000000000000008152506040518060400160405280600481526020017f565754540000000000000000000000000000000000000000000000000000000081525081600390816200008f9190620004af565b508060049081620000a19190620004af565b505050620000b8336103e8620000be60201b60201c565b620006b1565b600073ffffffffffffffffffffffffffffffffffffffff168273ffffffffffffffffffffffffffffffffffffffff160362000130576040517f08c379a00000000000000000000000000000000000000000000000000000000081526004016200012790620005f7565b60405180910390fd5b62000144600083836200022b60201b60201c565b806002600082825462000158919062000648565b92505081905550806000808473ffffffffffffffffffffffffffffffffffffffff1673ffffffffffffffffffffffffffffffffffffffff168152602001908152602001600020600082825401925050819055508173ffffffffffffffffffffffffffffffffffffffff16600073ffffffffffffffffffffffffffffffffffffffff167fddf252ad1be2c89b69c2b068fc378daa952ba7f163c4a11628f55a4df523b3ef836040516200020b919062000694565b60405180910390a362000227600083836200023060201b60201c565b5050565b505050565b505050565b600081519050919050565b7f4e487b7100000000000000000000000000000000000000000000000000000000600052604160045260246000fd5b7f4e487b7100000000000000000000000000000000000000000000000000000000600052602260045260246000fd5b60006002820490506001821680620002b757607f821691505b602082108103620002cd57620002cc6200026f565b5b50919050565b60008190508160005260206000209050919050565b60006020601f8301049050919050565b600082821b905092915050565b600060088302620003377fffffffffffffffffffffffffffffffffffffffffffffffffffffffffffffffff82620002f8565b620003438683620002f8565b95508019841693508086168417925050509392505050565b6000819050919050565b6000819050919050565b6000620003906200038a62000384846200035b565b62000365565b6200035b565b9050919050565b6000819050919050565b620003ac836200036f565b620003c4620003bb8262000397565b84845462000305565b825550505050565b600090565b620003db620003cc565b620003e8818484620003a1565b505050565b5b81811015620004105762000404600082620003d1565b600181019050620003ee565b5050565b601f8211156200045f576200042981620002d3565b6200043484620002e8565b8101602085101562000444578190505b6200045c6200045385620002e8565b830182620003ed565b50505b505050565b600082821c905092915050565b6000620004846000198460080262000464565b1980831691505092915050565b60006200049f838362000471565b9150826002028217905092915050565b620004ba8262000235565b67ffffffffffffffff811115620004d657620004d562000240565b5b620004e282546200029e565b620004ef82828562000414565b600060209050601f83116001811462000527576000841562000512578287015190505b6200051e858262000491565b8655506200058e565b601f1984166200053786620002d3565b60005b8281101562000561578489015182556001820191506020850194506020810190506200053a565b868310156200058157848901516200057d601f89168262000471565b8355505b6001600288020188555050505b505050505050565b600082825260208201905092915050565b7f45524332303a206d696e7420746f20746865207a65726f206164647265737300600082015250565b6000620005df601f8362000596565b9150620005ec82620005a7565b602082019050919050565b600060208201905081810360008301526200061281620005d0565b9050919050565b7f4e487b7100000000000000000000000000000000000000000000000000000000600052601160045260246000fd5b600062000655826200035b565b915062000662836200035b565b92508282019050808211156200067d576200067c62000619565b5b92915050565b6200068e816200035b565b82525050565b6000602082019050620006ab600083018462000683565b92915050565b61147780620006c16000396000f3fe608060405234801561001057600080fd5b50600436106100cf5760003560e01c8063313ce5671161008c57806395d89b411161006657806395d89b4114610228578063a457c2d714610246578063a9059cbb14610276578063dd62ed3e146102a6576100cf565b8063313ce567146101aa57806339509351146101c857806370a08231146101f8576100cf565b806306fdde03146100d4578063095ea7b3146100f257806318160ddd146101225780632004ffd91461014057806323b872dd1461014a57806327e235e31461017a575b600080fd5b6100dc6102d6565b6040516100e99190610ce8565b60405180910390f35b61010c60048036038101906101079190610da3565b610368565b6040516101199190610dfe565b60405180910390f35b61012a61038b565b6040516101379190610e28565b60405180910390f35b610148610395565b005b610164600480360381019061015f9190610e43565b6103a3565b6040516101719190610dfe565b60405180910390f35b610194600480360381019061018f9190610e96565b6103d2565b6040516101a19190610e28565b60405180910390f35b6101b26103ea565b6040516101bf9190610edf565b60405180910390f35b6101e260048036038101906101dd9190610da3565b6103f3565b6040516101ef9190610dfe565b60405180910390f35b610212600480360381019061020d9190610e96565b61042a565b60405161021f9190610e28565b60405180910390f35b610230610472565b60405161023d9190610ce8565b60405180910390f35b610260600480360381019061025b9190610da3565b610504565b60405161026d9190610dfe565b60405180910390f35b610290600480360381019061028b9190610da3565b61057b565b60405161029d9190610dfe565b60405180910390f35b6102c060048036038101906102bb9190610efa565b61059e565b6040516102cd9190610e28565b60405180910390f35b6060600380546102e590610f69565b80601f016020809104026020016040519081016040528092919081815260200182805461031190610f69565b801561035e5780601f106103335761010080835404028352916020019161035e565b820191906000526020600020905b81548152906001019060200180831161034157829003601f168201915b5050505050905090565b600080610373610625565b905061038081858561062d565b600191505092915050565b6000600254905090565b6103a1336103e86107f6565b565b6000806103ae610625565b90506103bb85828561094c565b6103c68585856109d8565b60019150509392505050565b60056020528060005260406000206000915090505481565b60006012905090565b6000806103fe610625565b905061041f818585610410858961059e565b61041a9190610fc9565b61062d565b600191505092915050565b60008060008373ffffffffffffffffffffffffffffffffffffffff1673ffffffffffffffffffffffffffffffffffffffff168152602001908152602001600020549050919050565b60606004805461048190610f69565b80601f01602080910402602001604051908101604052809291908181526020018280546104ad90610f69565b80156104fa5780601f106104cf576101008083540402835291602001916104fa565b820191906000526020600020905b8154815290600101906020018083116104dd57829003601f168201915b5050505050905090565b60008061050f610625565b9050600061051d828661059e565b905083811015610562576040517f08c379a00000000000000000000000000000000000000000000000000000000081526004016105599061106f565b60405180910390fd5b61056f828686840361062d565b60019250505092915050565b600080610586610625565b90506105938185856109d8565b600191505092915050565b6000600160008473ffffffffffffffffffffffffffffffffffffffff1673ffffffffffffffffffffffffffffffffffffffff16815260200190815260200160002060008373ffffffffffffffffffffffffffffffffffffffff1673ffffffffffffffffffffffffffffffffffffffff16815260200190815260200160002054905092915050565b600033905090565b600073ffffffffffffffffffffffffffffffffffffffff168373ffffffffffffffffffffffffffffffffffffffff160361069c576040517f08c379a000000000000000000000000000000000000000000000000000000000815260040161069390611101565b60405180910390fd5b600073ffffffffffffffffffffffffffffffffffffffff168273ffffffffffffffffffffffffffffffffffffffff160361070b576040517f08c379a000000000000000000000000000000000000000000000000000000000815260040161070290611193565b60405180910390fd5b80600160008573ffffffffffffffffffffffffffffffffffffffff1673ffffffffffffffffffffffffffffffffffffffff16815260200190815260200160002060008473ffffffffffffffffffffffffffffffffffffffff1673ffffffffffffffffffffffffffffffffffffffff168152602001908152602001600020819055508173ffffffffffffffffffffffffffffffffffffffff168373ffffffffffffffffffffffffffffffffffffffff167f8c5be1e5ebec7d5bd14f71427d1e84f3dd0314c0f7b2291e5b200ac8c7c3b925836040516107e99190610e28565b60405180910390a3505050565b600073ffffffffffffffffffffffffffffffffffffffff168273ffffffffffffffffffffffffffffffffffffffff1603610865576040517f08c379a000000000000000000000000000000000000000000000000000000000815260040161085c906111ff565b60405180910390fd5b61087160008383610c4e565b80600260008282546108839190610fc9565b92505081905550806000808473ffffffffffffffffffffffffffffffffffffffff1673ffffffffffffffffffffffffffffffffffffffff168152602001908152602001600020600082825401925050819055508173ffffffffffffffffffffffffffffffffffffffff16600073ffffffffffffffffffffffffffffffffffffffff167fddf252ad1be2c89b69c2b068fc378daa952ba7f163c4a11628f55a4df523b3ef836040516109349190610e28565b60405180910390a361094860008383610c53565b5050565b6000610958848461059e565b90507fffffffffffffffffffffffffffffffffffffffffffffffffffffffffffffffff81146109d257818110156109c4576040517f08c379a00000000000000000000000000000000000000000000000000000000081526004016109bb9061126b565b60405180910390fd5b6109d1848484840361062d565b5b50505050565b600073ffffffffffffffffffffffffffffffffffffffff168373ffffffffffffffffffffffffffffffffffffffff1603610a47576040517f08c379a0000000000000000000000000000000000000000000000000000000008152600401610a3e906112fd565b60405180910390fd5b600073ffffffffffffffffffffffffffffffffffffffff168273ffffffffffffffffffffffffffffffffffffffff1603610ab6576040517f08c379a0000000000000000000000000000000000000000000000000000000008152600401610aad9061138f565b60405180910390fd5b610ac1838383610c4e565b60008060008573ffffffffffffffffffffffffffffffffffffffff1673ffffffffffffffffffffffffffffffffffffffff16815260200190815260200160002054905081811015610b47576040517f08c379a0000000000000000000000000000000000000000000000000000000008152600401610b3e90611421565b60405180910390fd5b8181036000808673ffffffffffffffffffffffffffffffffffffffff1673ffffffffffffffffffffffffffffffffffffffff16815260200190815260200160002081905550816000808573ffffffffffffffffffffffffffffffffffffffff1673ffffffffffffffffffffffffffffffffffffffff168152602001908152602001600020600082825401925050819055508273ffffffffffffffffffffffffffffffffffffffff168473ffffffffffffffffffffffffffffffffffffffff167fddf252ad1be2c89b69c2b068fc378daa952ba7f163c4a11628f55a4df523b3ef84604051610c359190610e28565b60405180910390a3610c48848484610c53565b50505050565b505050565b505050565b600081519050919050565b600082825260208201905092915050565b60005b83811015610c92578082015181840152602081019050610c77565b60008484015250505050565b6000601f19601f8301169050919050565b6000610cba82610c58565b610cc48185610c63565b9350610cd4818560208601610c74565b610cdd81610c9e565b840191505092915050565b60006020820190508181036000830152610d028184610caf565b905092915050565b600080fd5b600073ffffffffffffffffffffffffffffffffffffffff82169050919050565b6000610d3a82610d0f565b9050919050565b610d4a81610d2f565b8114610d5557600080fd5b50565b600081359050610d6781610d41565b92915050565b6000819050919050565b610d8081610d6d565b8114610d8b57600080fd5b50565b600081359050610d9d81610d77565b92915050565b60008060408385031215610dba57610db9610d0a565b5b6000610dc885828601610d58565b9250506020610dd985828601610d8e565b9150509250929050565b60008115159050919050565b610df881610de3565b82525050565b6000602082019050610e136000830184610def565b92915050565b610e2281610d6d565b82525050565b6000602082019050610e3d6000830184610e19565b92915050565b600080600060608486031215610e5c57610e5b610d0a565b5b6000610e6a86828701610d58565b9350506020610e7b86828701610d58565b9250506040610e8c86828701610d8e565b9150509250925092565b600060208284031215610eac57610eab610d0a565b5b6000610eba84828501610d58565b91505092915050565b600060ff82169050919050565b610ed981610ec3565b82525050565b6000602082019050610ef46000830184610ed0565b92915050565b60008060408385031215610f1157610f10610d0a565b5b6000610f1f85828601610d58565b9250506020610f3085828601610d58565b9150509250929050565b7f4e487b7100000000000000000000000000000000000000000000000000000000600052602260045260246000fd5b60006002820490506001821680610f8157607f821691505b602082108103610f9457610f93610f3a565b5b50919050565b7f4e487b7100000000000000000000000000000000000000000000000000000000600052601160045260246000fd5b6000610fd482610d6d565b9150610fdf83610d6d565b9250828201905080821115610ff757610ff6610f9a565b5b92915050565b7f45524332303a2064656372656173656420616c6c6f77616e63652062656c6f7760008201527f207a65726f000000000000000000000000000000000000000000000000000000602082015250565b6000611059602583610c63565b915061106482610ffd565b604082019050919050565b600060208201905081810360008301526110888161104c565b9050919050565b7f45524332303a20617070726f76652066726f6d20746865207a65726f2061646460008201527f7265737300000000000000000000000000000000000000000000000000000000602082015250565b60006110eb602483610c63565b91506110f68261108f565b604082019050919050565b6000602082019050818103600083015261111a816110de565b9050919050565b7f45524332303a20617070726f766520746f20746865207a65726f20616464726560008201527f7373000000000000000000000000000000000000000000000000000000000000602082015250565b600061117d602283610c63565b915061118882611121565b604082019050919050565b600060208201905081810360008301526111ac81611170565b9050919050565b7f45524332303a206d696e7420746f20746865207a65726f206164647265737300600082015250565b60006111e9601f83610c63565b91506111f4826111b3565b602082019050919050565b60006020820190508181036000830152611218816111dc565b9050919050565b7f45524332303a20696e73756666696369656e7420616c6c6f77616e6365000000600082015250565b6000611255601d83610c63565b91506112608261121f565b602082019050919050565b6000602082019050818103600083015261128481611248565b9050919050565b7f45524332303a207472616e736665722066726f6d20746865207a65726f20616460008201527f6472657373000000000000000000000000000000000000000000000000000000602082015250565b60006112e7602583610c63565b91506112f28261128b565b604082019050919050565b60006020820190508181036000830152611316816112da565b9050919050565b7f45524332303a207472616e7366657220746f20746865207a65726f206164647260008201527f6573730000000000000000000000000000000000000000000000000000000000602082015250565b6000611379602383610c63565b91506113848261131d565b604082019050919050565b600060208201905081810360008301526113a88161136c565b9050919050565b7f45524332303a207472616e7366657220616d6f756e742065786365656473206260008201527f616c616e63650000000000000000000000000000000000000000000000000000602082015250565b600061140b602683610c63565b9150611416826113af565b604082019050919050565b6000602082019050818103600083015261143a816113fe565b905091905056fea26469706673582212205d1922c0e1fa0c7b2a366c6c3644e8ab8b7ef374eb6ad63fa329e6e9e9842d4764736f6c63430008120033",
  "immutableReferences": {},
  "source": "//SPDX-License-Identifier: MIT\npragma solidity >=0.4.22 <0.9.0;\nimport \"@openzeppelin/contracts/token/ERC20/ERC20.sol\";\nimport \"@openzeppelin/contracts/access/Ownable.sol\";\n\ncontract VWTestTokenContract is ERC20(\"VWTest Token\", \"VWTT\") {\n    mapping(address => uint256) public balances;\n\n    constructor() {\n        // Set the starting balance for the contract deployer\n        _mint(msg.sender, 1000);// Set the desired starting balance\n    }\n\n    function mintToken() public {\n        _mint(msg.sender, 1000);\n    }\n}",
  "sourcePath": "/Users/vincent/git/web3-sandbox/mobile/truffle/contracts/VWTestTokenContract.sol",
  "compiler": {
    "name": "solc",
    "version": "0.8.18+commit.87f61d96.Emscripten.clang"
  },
  "schemaVersion": "3.4.13",
  "updatedAt": "2023-05-24T18:44:12.037Z",
  "networkType": "ethereum",
  "devdoc": {
    "events": {
      "Approval(address,address,uint256)": {
        "details": "Emitted when the allowance of a `spender` for an `owner` is set by a call to {approve}. `value` is the new allowance."
      },
      "Transfer(address,address,uint256)": {
        "details": "Emitted when `value` tokens are moved from one account (`from`) to another (`to`). Note that `value` may be zero."
      }
    },
    "kind": "dev",
    "methods": {
      "allowance(address,address)": {
        "details": "See {IERC20-allowance}."
      },
      "approve(address,uint256)": {
        "details": "See {IERC20-approve}. NOTE: If `amount` is the maximum `uint256`, the allowance is not updated on `transferFrom`. This is semantically equivalent to an infinite approval. Requirements: - `spender` cannot be the zero address."
      },
      "balanceOf(address)": {
        "details": "See {IERC20-balanceOf}."
      },
      "decimals()": {
        "details": "Returns the number of decimals used to get its user representation. For example, if `decimals` equals `2`, a balance of `505` tokens should be displayed to a user as `5.05` (`505 / 10 ** 2`). Tokens usually opt for a value of 18, imitating the relationship between Ether and Wei. This is the value {ERC20} uses, unless this function is overridden; NOTE: This information is only used for _display_ purposes: it in no way affects any of the arithmetic of the contract, including {IERC20-balanceOf} and {IERC20-transfer}."
      },
      "decreaseAllowance(address,uint256)": {
        "details": "Atomically decreases the allowance granted to `spender` by the caller. This is an alternative to {approve} that can be used as a mitigation for problems described in {IERC20-approve}. Emits an {Approval} event indicating the updated allowance. Requirements: - `spender` cannot be the zero address. - `spender` must have allowance for the caller of at least `subtractedValue`."
      },
      "increaseAllowance(address,uint256)": {
        "details": "Atomically increases the allowance granted to `spender` by the caller. This is an alternative to {approve} that can be used as a mitigation for problems described in {IERC20-approve}. Emits an {Approval} event indicating the updated allowance. Requirements: - `spender` cannot be the zero address."
      },
      "name()": {
        "details": "Returns the name of the token."
      },
      "symbol()": {
        "details": "Returns the symbol of the token, usually a shorter version of the name."
      },
      "totalSupply()": {
        "details": "See {IERC20-totalSupply}."
      },
      "transfer(address,uint256)": {
        "details": "See {IERC20-transfer}. Requirements: - `to` cannot be the zero address. - the caller must have a balance of at least `amount`."
      },
      "transferFrom(address,address,uint256)": {
        "details": "See {IERC20-transferFrom}. Emits an {Approval} event indicating the updated allowance. This is not required by the EIP. See the note at the beginning of {ERC20}. NOTE: Does not update the allowance if the current allowance is the maximum `uint256`. Requirements: - `from` and `to` cannot be the zero address. - `from` must have a balance of at least `amount`. - the caller must have allowance for ``from``'s tokens of at least `amount`."
      }
    },
    "version": 1
  },
  "userdoc": {
    "kind": "user",
    "methods": {},
    "version": 1
  }
}